{
  "_format": "hh-sol-artifact-1",
  "contractName": "ProofAnchor",
  "sourceName": "contracts/ProofAnchor.sol",
  "abi": [
    {
      "anonymous": false,
      "inputs": [
        {
          "indexed": true,
          "internalType": "bytes32",
          "name": "proofHash",
          "type": "bytes32"
        },
        {
          "indexed": true,
          "internalType": "address",
          "name": "anchorer",
          "type": "address"
        },
        {
          "indexed": false,
          "internalType": "uint256",
          "name": "blockNumber",
          "type": "uint256"
        }
      ],
      "name": "ProofAnchored",
      "type": "event"
    },
    {
      "inputs": [
        {
          "internalType": "bytes32",
          "name": "proofHash",
          "type": "bytes32"
        }
      ],
      "name": "anchorProof",
      "outputs": [
        {
          "internalType": "bool",
          "name": "",
          "type": "bool"
        }
      ],
      "stateMutability": "nonpayable",
      "type": "function"
    }
  ],
  "bytecode": "0x608060405234801561001057600080fd5b506101c2806100206000396000f3fe608060405234801561001057600080fd5b506004361061002b5760003560e01c8063c72290e614610030575b600080fd5b61004a600480360381019061004591906100f5565b610060565b604051610057919061013d565b60405180910390f35b60003373ffffffffffffffffffffffffffffffffffffffff16827f3ad2f3b700515afdcba4d9dfe971870c4917a2a1e1ae0c0d6c79e8becafc6ca0436040516100a99190610171565b60405180910390a360019050919050565b600080fd5b6000819050919050565b6100d2816100bf565b81146100dd57600080fd5b50565b6000813590506100ef816100c9565b92915050565b60006020828403121561010b5761010a6100ba565b5b6000610119848285016100e0565b91505092915050565b60008115159050919050565b61013781610122565b82525050565b6000602082019050610152600083018461012e565b92915050565b6000819050919050565b61016b81610158565b82525050565b60006020820190506101866000830184610162565b9291505056fea26469706673582212201d17cb0c2dfcb5e6becc855b7263382a5ceb773658edff2fcf78d70984b7d38a64736f6c63430008130033",
  "linkReferences": {},
  "deployedLinkReferences": {}
}